{
  "contractName": "Insurance",
  "abi": [
    {
      "constant": true,
      "inputs": [],
      "name": "nextDiseaseId",
      "outputs": [
        {
          "name": "",
          "type": "uint256"
        }
      ],
      "payable": false,
      "stateMutability": "view",
      "type": "function",
      "signature": "0x305003af"
    },
    {
      "constant": true,
      "inputs": [],
      "name": "nextMedicalProfessionalId",
      "outputs": [
        {
          "name": "",
          "type": "uint256"
        }
      ],
      "payable": false,
      "stateMutability": "view",
      "type": "function",
      "signature": "0x4b24bed3"
    },
    {
      "constant": true,
      "inputs": [],
      "name": "nextVerifierId",
      "outputs": [
        {
          "name": "",
          "type": "uint256"
        }
      ],
      "payable": false,
      "stateMutability": "view",
      "type": "function",
      "signature": "0x51911c52"
    },
    {
      "constant": true,
      "inputs": [
        {
          "name": "",
          "type": "address"
        }
      ],
      "name": "clients",
      "outputs": [
        {
          "name": "id",
          "type": "uint256"
        },
        {
          "name": "name",
          "type": "string"
        },
        {
          "name": "verified",
          "type": "bool"
        },
        {
          "name": "state",
          "type": "uint256"
        },
        {
          "name": "caddress",
          "type": "string"
        }
      ],
      "payable": false,
      "stateMutability": "view",
      "type": "function",
      "signature": "0x61eed2a9"
    },
    {
      "constant": true,
      "inputs": [
        {
          "name": "",
          "type": "address"
        }
      ],
      "name": "verifiers",
      "outputs": [
        {
          "name": "id",
          "type": "uint256"
        },
        {
          "name": "name",
          "type": "string"
        },
        {
          "name": "valid",
          "type": "bool"
        }
      ],
      "payable": false,
      "stateMutability": "view",
      "type": "function",
      "signature": "0x6c824487"
    },
    {
      "constant": true,
      "inputs": [],
      "name": "nextClientId",
      "outputs": [
        {
          "name": "",
          "type": "uint256"
        }
      ],
      "payable": false,
      "stateMutability": "view",
      "type": "function",
      "signature": "0x7816e2ed"
    },
    {
      "constant": true,
      "inputs": [
        {
          "name": "",
          "type": "address"
        }
      ],
      "name": "medicalProfessionals",
      "outputs": [
        {
          "name": "id",
          "type": "uint256"
        },
        {
          "name": "name",
          "type": "string"
        },
        {
          "name": "valid",
          "type": "bool"
        }
      ],
      "payable": false,
      "stateMutability": "view",
      "type": "function",
      "signature": "0x865be76c"
    },
    {
      "constant": true,
      "inputs": [],
      "name": "nextClaimId",
      "outputs": [
        {
          "name": "",
          "type": "uint256"
        }
      ],
      "payable": false,
      "stateMutability": "view",
      "type": "function",
      "signature": "0xa0021cf1"
    },
    {
      "constant": true,
      "inputs": [
        {
          "name": "",
          "type": "uint256"
        }
      ],
      "name": "claims",
      "outputs": [
        {
          "name": "id",
          "type": "uint256"
        },
        {
          "name": "claimant",
          "type": "address"
        },
        {
          "name": "state",
          "type": "int256"
        },
        {
          "name": "file",
          "type": "string"
        }
      ],
      "payable": false,
      "stateMutability": "view",
      "type": "function",
      "signature": "0xa888c2cd"
    },
    {
      "constant": true,
      "inputs": [],
      "name": "admin",
      "outputs": [
        {
          "name": "",
          "type": "address"
        }
      ],
      "payable": false,
      "stateMutability": "view",
      "type": "function",
      "signature": "0xf851a440"
    },
    {
      "inputs": [],
      "payable": false,
      "stateMutability": "nonpayable",
      "type": "constructor",
      "signature": "constructor"
    },
    {
      "anonymous": false,
      "inputs": [
        {
          "indexed": false,
          "name": "",
          "type": "address"
        },
        {
          "indexed": false,
          "name": "",
          "type": "string"
        },
        {
          "indexed": false,
          "name": "",
          "type": "string"
        }
      ],
      "name": "clientAdded",
      "type": "event",
      "signature": "0x6daa8f346a7923aaedeb4240dd3a000f2bc3613ae6a80bda18a12207bc02e385"
    },
    {
      "anonymous": false,
      "inputs": [
        {
          "indexed": false,
          "name": "",
          "type": "address"
        },
        {
          "indexed": false,
          "name": "",
          "type": "string"
        }
      ],
      "name": "medicalProfessionalAdded",
      "type": "event",
      "signature": "0x68593e4d61246bde2a47f3415c9be3989f7cf137d7edc265334c0b5480b464a8"
    },
    {
      "anonymous": false,
      "inputs": [
        {
          "indexed": false,
          "name": "",
          "type": "address"
        },
        {
          "indexed": false,
          "name": "",
          "type": "string"
        }
      ],
      "name": "verifierAdded",
      "type": "event",
      "signature": "0x091ec265859134cc9a2741e5c9db3d5af948729b8a9b8b82e5fb6c0b1b3c33ce"
    },
    {
      "anonymous": false,
      "inputs": [
        {
          "indexed": false,
          "name": "",
          "type": "uint256"
        },
        {
          "indexed": false,
          "name": "",
          "type": "address"
        },
        {
          "indexed": false,
          "name": "",
          "type": "uint256"
        }
      ],
      "name": "claimCreated",
      "type": "event",
      "signature": "0x1ab28a78bbebc3288dd3597096828066bd3f3129b68bf412a163a762e3720ff5"
    },
    {
      "constant": false,
      "inputs": [
        {
          "name": "_verifierAddress",
          "type": "address"
        },
        {
          "name": "_name",
          "type": "string"
        }
      ],
      "name": "addVerifier",
      "outputs": [],
      "payable": false,
      "stateMutability": "nonpayable",
      "type": "function",
      "signature": "0x7340792a"
    },
    {
      "constant": false,
      "inputs": [
        {
          "name": "_medicalProfessional",
          "type": "address"
        },
        {
          "name": "_name",
          "type": "string"
        }
      ],
      "name": "addMedicalProfessional",
      "outputs": [],
      "payable": false,
      "stateMutability": "nonpayable",
      "type": "function",
      "signature": "0xcc1e343d"
    },
    {
      "constant": false,
      "inputs": [
        {
          "name": "_clientAddress",
          "type": "address"
        },
        {
          "name": "_name",
          "type": "string"
        },
        {
          "name": "_caddress",
          "type": "string"
        }
      ],
      "name": "addClient",
      "outputs": [],
      "payable": false,
      "stateMutability": "nonpayable",
      "type": "function",
      "signature": "0xb17f7180"
    },
    {
      "constant": false,
      "inputs": [
        {
          "name": "_clientAddress",
          "type": "address"
        }
      ],
      "name": "registerClient",
      "outputs": [],
      "payable": false,
      "stateMutability": "nonpayable",
      "type": "function",
      "signature": "0x42a67b7f"
    },
    {
      "constant": false,
      "inputs": [
        {
          "name": "_file",
          "type": "string"
        }
      ],
      "name": "createClaim",
      "outputs": [],
      "payable": false,
      "stateMutability": "nonpayable",
      "type": "function",
      "signature": "0x84c08ed3"
    },
    {
      "constant": false,
      "inputs": [
        {
          "name": "id",
          "type": "uint256"
        }
      ],
      "name": "checkClaim",
      "outputs": [],
      "payable": false,
      "stateMutability": "nonpayable",
      "type": "function",
      "signature": "0x1681d158"
    },
    {
      "constant": false,
      "inputs": [
        {
          "name": "id",
          "type": "uint256"
        }
      ],
      "name": "rejectClaimMedical",
      "outputs": [],
      "payable": false,
      "stateMutability": "nonpayable",
      "type": "function",
      "signature": "0xefab1619"
    },
    {
      "constant": false,
      "inputs": [
        {
          "name": "id",
          "type": "uint256"
        }
      ],
      "name": "approveClaim",
      "outputs": [],
      "payable": false,
      "stateMutability": "nonpayable",
      "type": "function",
      "signature": "0x46e30135"
    },
    {
      "constant": false,
      "inputs": [
        {
          "name": "id",
          "type": "uint256"
        }
      ],
      "name": "rejectClaimVerifier",
      "outputs": [],
      "payable": false,
      "stateMutability": "nonpayable",
      "type": "function",
      "signature": "0x7b3dd266"
    }
  ],
  "bytecode": "0x60806040523480156200001157600080fd5b50336000806101000a81548173ffffffffffffffffffffffffffffffffffffffff021916908373ffffffffffffffffffffffffffffffffffffffff160217905550606060405190810160405280600081526020016040805190810160405280600581526020017f61646d696e000000000000000000000000000000000000000000000000000000815250815260200160011515815250600860008060009054906101000a900473ffffffffffffffffffffffffffffffffffffffff1673ffffffffffffffffffffffffffffffffffffffff1673ffffffffffffffffffffffffffffffffffffffff1681526020019081526020016000206000820151816000015560208201518160010190805190602001906200012f92919062000181565b5060408201518160020160006101000a81548160ff0219169083151502179055509050506000600181905550600060028190555060006003819055506001600481905550600060058190555062000230565b828054600181600116156101000203166002900490600052602060002090601f016020900481019282601f10620001c457805160ff1916838001178555620001f5565b82800160010185558215620001f5579182015b82811115620001f4578251825591602001919060010190620001d7565b5b50905062000204919062000208565b5090565b6200022d91905b80821115620002295760008160009055506001016200020f565b5090565b90565b611aa380620002406000396000f3fe608060405260043610610107576000357c0100000000000000000000000000000000000000000000000000000000900463ffffffff1680631681d1581461010c578063305003af1461014757806342a67b7f1461017257806346e30135146101c35780634b24bed3146101fe57806351911c521461022957806361eed2a9146102545780636c824487146103a35780637340792a1461047f5780637816e2ed146105255780637b3dd2661461055057806384c08ed31461058b578063865be76c14610611578063a0021cf1146106ed578063a888c2cd14610718578063b17f71801461080d578063cc1e343d14610908578063efab1619146109ae578063f851a440146109e9575b600080fd5b34801561011857600080fd5b506101456004803603602081101561012f57600080fd5b8101908080359060200190929190505050610a40565b005b34801561015357600080fd5b5061015c610a84565b6040518082815260200191505060405180910390f35b34801561017e57600080fd5b506101c16004803603602081101561019557600080fd5b81019080803573ffffffffffffffffffffffffffffffffffffffff169060200190929190505050610a8a565b005b3480156101cf57600080fd5b506101fc600480360360208110156101e657600080fd5b8101908080359060200190929190505050610b92565b005b34801561020a57600080fd5b50610213610c38565b6040518082815260200191505060405180910390f35b34801561023557600080fd5b5061023e610c3e565b6040518082815260200191505060405180910390f35b34801561026057600080fd5b506102a36004803603602081101561027757600080fd5b81019080803573ffffffffffffffffffffffffffffffffffffffff169060200190929190505050610c44565b60405180868152602001806020018515151515815260200184815260200180602001838103835287818151815260200191508051906020019080838360005b838110156102fd5780820151818401526020810190506102e2565b50505050905090810190601f16801561032a5780820380516001836020036101000a031916815260200191505b50838103825284818151815260200191508051906020019080838360005b83811015610363578082015181840152602081019050610348565b50505050905090810190601f1680156103905780820380516001836020036101000a031916815260200191505b5097505050505050505060405180910390f35b3480156103af57600080fd5b506103f2600480360360208110156103c657600080fd5b81019080803573ffffffffffffffffffffffffffffffffffffffff169060200190929190505050610db7565b604051808481526020018060200183151515158152602001828103825284818151815260200191508051906020019080838360005b83811015610442578082015181840152602081019050610427565b50505050905090810190601f16801561046f5780820380516001836020036101000a031916815260200191505b5094505050505060405180910390f35b34801561048b57600080fd5b50610523600480360360408110156104a257600080fd5b81019080803573ffffffffffffffffffffffffffffffffffffffff169060200190929190803590602001906401000000008111156104df57600080fd5b8201836020820111156104f157600080fd5b8035906020019184600183028401116401000000008311171561051357600080fd5b9091929391929390505050610e86565b005b34801561053157600080fd5b5061053a61107d565b6040518082815260200191505060405180910390f35b34801561055c57600080fd5b506105896004803603602081101561057357600080fd5b8101908080359060200190929190505050611083565b005b34801561059757600080fd5b5061060f600480360360208110156105ae57600080fd5b81019080803590602001906401000000008111156105cb57600080fd5b8201836020820111156105dd57600080fd5b803590602001918460018302840111640100000000831117156105ff57600080fd5b9091929391929390505050611148565b005b34801561061d57600080fd5b506106606004803603602081101561063457600080fd5b81019080803573ffffffffffffffffffffffffffffffffffffffff169060200190929190505050611345565b604051808481526020018060200183151515158152602001828103825284818151815260200191508051906020019080838360005b838110156106b0578082015181840152602081019050610695565b50505050905090810190601f1680156106dd5780820380516001836020036101000a031916815260200191505b5094505050505060405180910390f35b3480156106f957600080fd5b50610702611414565b6040518082815260200191505060405180910390f35b34801561072457600080fd5b506107516004803603602081101561073b57600080fd5b810190808035906020019092919050505061141a565b604051808581526020018473ffffffffffffffffffffffffffffffffffffffff1673ffffffffffffffffffffffffffffffffffffffff16815260200183815260200180602001828103825283818151815260200191508051906020019080838360005b838110156107cf5780820151818401526020810190506107b4565b50505050905090810190601f1680156107fc5780820380516001836020036101000a031916815260200191505b509550505050505060405180910390f35b34801561081957600080fd5b506109066004803603606081101561083057600080fd5b81019080803573ffffffffffffffffffffffffffffffffffffffff1690602001909291908035906020019064010000000081111561086d57600080fd5b82018360208201111561087f57600080fd5b803590602001918460018302840111640100000000831117156108a157600080fd5b9091929391929390803590602001906401000000008111156108c257600080fd5b8201836020820111156108d457600080fd5b803590602001918460018302840111640100000000831117156108f657600080fd5b9091929391929390505050611502565b005b34801561091457600080fd5b506109ac6004803603604081101561092b57600080fd5b81019080803573ffffffffffffffffffffffffffffffffffffffff1690602001909291908035906020019064010000000081111561096857600080fd5b82018360208201111561097a57600080fd5b8035906020019184600183028401116401000000008311171561099c57600080fd5b909192939192939050505061174c565b005b3480156109ba57600080fd5b506109e7600480360360208110156109d157600080fd5b810190808035906020019092919050505061194a565b005b3480156109f557600080fd5b506109fe6119ad565b604051808273ffffffffffffffffffffffffffffffffffffffff1673ffffffffffffffffffffffffffffffffffffffff16815260200191505060405180910390f35b60006009600083815260200190815260200160002060020154141515610a6557600080fd5b6001600960008381526020019081526020016000206002018190555050565b60015481565b60011515600860003373ffffffffffffffffffffffffffffffffffffffff1673ffffffffffffffffffffffffffffffffffffffff16815260200190815260200160002060020160009054906101000a900460ff161515141515610aec57600080fd5b6001600660008373ffffffffffffffffffffffffffffffffffffffff1673ffffffffffffffffffffffffffffffffffffffff16815260200190815260200160002060020160006101000a81548160ff0219169083151502179055506002600660008373ffffffffffffffffffffffffffffffffffffffff1673ffffffffffffffffffffffffffffffffffffffff1681526020019081526020016000206003018190555050565b60011515600860003373ffffffffffffffffffffffffffffffffffffffff1673ffffffffffffffffffffffffffffffffffffffff16815260200190815260200160002060020160009054906101000a900460ff161515141515610bf457600080fd5b60016009600083815260200190815260200160002060020154141515610c1957600080fd5b6002600960008381526020019081526020016000206002018190555050565b60025481565b60045481565b6006602052806000526040600020600091509050806000015490806001018054600181600116156101000203166002900480601f016020809104026020016040519081016040528092919081815260200182805460018160011615610100020316600290048015610cf65780601f10610ccb57610100808354040283529160200191610cf6565b820191906000526020600020905b815481529060010190602001808311610cd957829003601f168201915b5050505050908060020160009054906101000a900460ff1690806003015490806004018054600181600116156101000203166002900480601f016020809104026020016040519081016040528092919081815260200182805460018160011615610100020316600290048015610dad5780601f10610d8257610100808354040283529160200191610dad565b820191906000526020600020905b815481529060010190602001808311610d9057829003601f168201915b5050505050905085565b6008602052806000526040600020600091509050806000015490806001018054600181600116156101000203166002900480601f016020809104026020016040519081016040528092919081815260200182805460018160011615610100020316600290048015610e695780601f10610e3e57610100808354040283529160200191610e69565b820191906000526020600020905b815481529060010190602001808311610e4c57829003601f168201915b5050505050908060020160009054906101000a900460ff16905083565b6000809054906101000a900473ffffffffffffffffffffffffffffffffffffffff1673ffffffffffffffffffffffffffffffffffffffff163373ffffffffffffffffffffffffffffffffffffffff16141515610ee157600080fd5b606060405190810160405280600454815260200183838080601f016020809104026020016040519081016040528093929190818152602001838380828437600081840152601f19601f82011690508083019250505050505050815260200160011515815250600860008573ffffffffffffffffffffffffffffffffffffffff1673ffffffffffffffffffffffffffffffffffffffff168152602001908152602001600020600082015181600001556020820151816001019080519060200190610fab9291906119d2565b5060408201518160020160006101000a81548160ff0219169083151502179055509050506004600081548092919060010191905055507f091ec265859134cc9a2741e5c9db3d5af948729b8a9b8b82e5fb6c0b1b3c33ce838383604051808473ffffffffffffffffffffffffffffffffffffffff1673ffffffffffffffffffffffffffffffffffffffff168152602001806020018281038252848482818152602001925080828437600081840152601f19601f82011690508083019250505094505050505060405180910390a1505050565b60035481565b60011515600860003373ffffffffffffffffffffffffffffffffffffffff1673ffffffffffffffffffffffffffffffffffffffff16815260200190815260200160002060020160009054906101000a900460ff1615151415156110e557600080fd5b6002600960008381526020019081526020016000206002015414151561110a57600080fd5b7ffffffffffffffffffffffffffffffffffffffffffffffffffffffffffffffffe600960008381526020019081526020016000206002018190555050565b60011515600660003373ffffffffffffffffffffffffffffffffffffffff1673ffffffffffffffffffffffffffffffffffffffff16815260200190815260200160002060020160009054906101000a900460ff1615151415156111aa57600080fd5b60806040519081016040528060055481526020013373ffffffffffffffffffffffffffffffffffffffff1681526020016000815260200183838080601f016020809104026020016040519081016040528093929190818152602001838380828437600081840152601f19601f820116905080830192505050505050508152506009600060055481526020019081526020016000206000820151816000015560208201518160010160006101000a81548173ffffffffffffffffffffffffffffffffffffffff021916908373ffffffffffffffffffffffffffffffffffffffff1602179055506040820151816002015560608201518160030190805190602001906112b59291906119d2565b509050507f1ab28a78bbebc3288dd3597096828066bd3f3129b68bf412a163a762e3720ff5600554336000604051808481526020018373ffffffffffffffffffffffffffffffffffffffff1673ffffffffffffffffffffffffffffffffffffffff168152602001828152602001935050505060405180910390a16005600081548092919060010191905055505050565b6007602052806000526040600020600091509050806000015490806001018054600181600116156101000203166002900480601f0160208091040260200160405190810160405280929190818152602001828054600181600116156101000203166002900480156113f75780601f106113cc576101008083540402835291602001916113f7565b820191906000526020600020905b8154815290600101906020018083116113da57829003601f168201915b5050505050908060020160009054906101000a900460ff16905083565b60055481565b60096020528060005260406000206000915090508060000154908060010160009054906101000a900473ffffffffffffffffffffffffffffffffffffffff1690806002015490806003018054600181600116156101000203166002900480601f0160208091040260200160405190810160405280929190818152602001828054600181600116156101000203166002900480156114f85780601f106114cd576101008083540402835291602001916114f8565b820191906000526020600020905b8154815290600101906020018083116114db57829003601f168201915b5050505050905084565b60a060405190810160405280600354815260200185858080601f016020809104026020016040519081016040528093929190818152602001838380828437600081840152601f19601f8201169050808301925050505050505081526020016000151581526020016001815260200183838080601f016020809104026020016040519081016040528093929190818152602001838380828437600081840152601f19601f82011690508083019250505050505050815250600660008773ffffffffffffffffffffffffffffffffffffffff1673ffffffffffffffffffffffffffffffffffffffff16815260200190815260200160002060008201518160000155602082015181600101908051906020019061161d9291906119d2565b5060408201518160020160006101000a81548160ff0219169083151502179055506060820151816003015560808201518160040190805190602001906116649291906119d2565b509050506003600081548092919060010191905055507f6daa8f346a7923aaedeb4240dd3a000f2bc3613ae6a80bda18a12207bc02e3858585858585604051808673ffffffffffffffffffffffffffffffffffffffff1673ffffffffffffffffffffffffffffffffffffffff16815260200180602001806020018381038352878782818152602001925080828437600081840152601f19601f8201169050808301925050508381038252858582818152602001925080828437600081840152601f19601f82011690508083019250505097505050505050505060405180910390a15050505050565b60011515600860003373ffffffffffffffffffffffffffffffffffffffff1673ffffffffffffffffffffffffffffffffffffffff16815260200190815260200160002060020160009054906101000a900460ff1615151415156117ae57600080fd5b606060405190810160405280600254815260200183838080601f016020809104026020016040519081016040528093929190818152602001838380828437600081840152601f19601f82011690508083019250505050505050815260200160011515815250600760008573ffffffffffffffffffffffffffffffffffffffff1673ffffffffffffffffffffffffffffffffffffffff1681526020019081526020016000206000820151816000015560208201518160010190805190602001906118789291906119d2565b5060408201518160020160006101000a81548160ff0219169083151502179055509050506002600081548092919060010191905055507f68593e4d61246bde2a47f3415c9be3989f7cf137d7edc265334c0b5480b464a8838383604051808473ffffffffffffffffffffffffffffffffffffffff1673ffffffffffffffffffffffffffffffffffffffff168152602001806020018281038252848482818152602001925080828437600081840152601f19601f82011690508083019250505094505050505060405180910390a1505050565b6000600960008381526020019081526020016000206002015414151561196f57600080fd5b7fffffffffffffffffffffffffffffffffffffffffffffffffffffffffffffffff600960008381526020019081526020016000206002018190555050565b6000809054906101000a900473ffffffffffffffffffffffffffffffffffffffff1681565b828054600181600116156101000203166002900490600052602060002090601f016020900481019282601f10611a1357805160ff1916838001178555611a41565b82800160010185558215611a41579182015b82811115611a40578251825591602001919060010190611a25565b5b509050611a4e9190611a52565b5090565b611a7491905b80821115611a70576000816000905550600101611a58565b5090565b9056fea165627a7a7230582031685434152bcb514cfb5866e1511695e7c72af89baf1cc4e749fd2c9c00f7d70029",
  "source": "pragma solidity ^0.5.0;\n\ncontract Insurance{\n    struct Disease{\n        uint id;\n        string name;\n    }\n    \n    struct Client{\n        uint id;\n        string name;\n        bool verified;\n        uint state;\n        string caddress;\n    }\n    \n    struct MedicalProfessional{\n        uint id;\n        string name;\n        bool valid;\n    }\n    \n    struct Verifier{\n        uint id;\n        string name;\n        bool valid;\n    }\n\n    struct Claim{\n        uint id;\n        address claimant;\n        int state;\n        string file;\n    }\n\n    address public admin;\n    uint public nextDiseaseId;\n    uint public nextMedicalProfessionalId;\n    uint public nextClientId;\n    uint public nextVerifierId;\n    uint public nextClaimId;\n\n    mapping(address => Client)public clients;\n    mapping(address => MedicalProfessional)public medicalProfessionals;\n    mapping(address => Verifier)public verifiers;\n    mapping(uint => Claim)public claims;\n\n    event clientAdded(address, string,      string);\n    event medicalProfessionalAdded(address, string);\n    event verifierAdded(address, string);\n    event claimCreated(uint, address, uint);\n\n    constructor() public{\n        admin = msg.sender;\n        verifiers[admin] = Verifier(0, \"admin\", true);\n        \n        nextDiseaseId = 0;\n        nextMedicalProfessionalId = 0;\n        nextClientId = 0;\n        nextVerifierId = 1;\n        nextClaimId = 0;\n    }\n    \n    function addVerifier(address _verifierAddress, string calldata _name) external onlyAdmin(){\n        verifiers[_verifierAddress] = Verifier(nextVerifierId, _name, true);\n        nextVerifierId++;\n        emit verifierAdded(_verifierAddress, _name);\n    }\n    \n    function addMedicalProfessional(address _medicalProfessional, \n        string calldata _name) external onlyVerifier(){\n        medicalProfessionals[_medicalProfessional] = MedicalProfessional(nextMedicalProfessionalId, _name, true);\n        nextMedicalProfessionalId++;\n        emit medicalProfessionalAdded(_medicalProfessional, _name);\n    }\n    \n    function addClient(address _clientAddress, string calldata _name, string calldata _caddress) external{\n        clients[_clientAddress] = Client(nextClientId, _name, false, 1, _caddress);\n        nextClientId++;\n        emit clientAdded(_clientAddress, _name, _caddress);\n    }\n    \n    function registerClient(address _clientAddress)external onlyVerifier(){\n        clients[_clientAddress].verified = true;\n        clients[_clientAddress].state = 2;\n    }\n    \n    function createClaim(string calldata _file) external registeredClient(){\n        claims[nextClaimId] = Claim(nextClaimId, msg.sender, 0, _file);\n        emit claimCreated(nextClaimId, msg.sender, 0);\n        nextClaimId++;\n    }\n    \n    function checkClaim(uint id) external \n    // onlyMedicalProfessional()\n    {\n        require(claims[id].state == 0);\n        claims[id].state = 1;\n    }\n    \n    function rejectClaimMedical(uint id) external \n    // onlyMedicalProfessional()\n    {\n        require(claims[id].state == 0);\n        claims[id].state = -1;\n    }\n    \n    function approveClaim(uint id) external onlyVerifier(){\n        require(claims[id].state == 1);\n        claims[id].state = 2;\n    }\n    \n    function rejectClaimVerifier(uint id) external onlyVerifier{\n        require(claims[id].state == 2);\n        claims[id].state = -2;\n    }\n\n    modifier onlyAdmin(){\n        require(msg.sender == admin);\n        _;\n    }\n    \n    modifier onlyVerifier(){\n        require(verifiers[msg.sender].valid == true);\n        _;\n    }\n    \n    modifier onlyMedicalProfessional(){\n        require(medicalProfessionals[msg.sender].valid == true, \"only medical professional allowed\");\n        _;\n    }\n    \n    modifier registeredClient(){\n        require(clients[msg.sender].verified == true);\n        _;\n    }\n}",
  "sourcePath": "/run/media/vivek/DATA/Projects/Ethereum_InsuranceClaim/contracts/Insurance.sol",
  "compiler": {
    "name": "solc",
    "version": "0.5.0+commit.1d4f565a.Emscripten.clang"
  },
  "schemaVersion": "3.0.1",
  "updatedAt": "2019-11-24T10:58:51.865Z",
  "devdoc": {
    "methods": {}
  },
  "userdoc": {
    "methods": {}
  }
}